:100000000AC011C010C00FC00EC00DC00CC00BC084
:100010000AC009C008C011271FBFCFE5D0E0DEBF6E
:10002000CDBF71D084C0ECCFCF93112722273327C7
:1000300044275527A6E3B1E4C2E3D1E48370C80F97
:100040003991A30F51E03D91129A37FF06C000008D
:1000500000000000000000000000129800000000F6
:1000600030FD02C0000000004395330F43FFECCF8A
:100070004427539552FFE7CF5527139511FFDACF49
:10008000112755278395239522FFD4CF1127332796
:100090004427552721E0A6E3B1E46770A60FA60F19
:1000A000A60F51E03D91129A37FF06C000000000F4
:1000B000000000000000000012980000000030FD69
:1000C00002C0000000004395330F43FFECCF4427EC
:1000D000539552FFE7CF5527139512FFDCCF112719
:1000E000253008F013956395239523FFD4CFCF9146
:1000F000089540ED49BF48ED4CBF16BF17BF0895A6
:1001000044E041B90895F5DFFBDFC0E080E06C2FEB
:100110008BDF4FEF52E567E0415050406040E1F720
:1001200000C00000CF5F8C2F86958695F0CFF894A5
:02013000FFCFFF
:10013200120C090300123000006018003040000069
:0C0142002020002040000040000026208B
:00000001FF
