:100000000AC011C010C00FC00EC00DC00CC00BC084
:100010000AC009C008C011271FBFCFE5D0E0DEBF6E
:10002000CDBFEAD0FCC0ECCFCF93222733274427A3
:100030005527A6E2B2E4C2E2D2E48370C80F399138
:10004000A30F51E03D91129A37FF06C00000000057
:10005000000000000000000012980000000030FDC9
:1000600002C0000000004395330F43FFECCF44274C
:10007000539552FFE7CF5527A6E2B2E4C2E2D2E49D
:10008000C80F3991A30F51E03D91129A37FF06C076
:1000900000000000000000000000000012980000B6
:1000A000000030FD02C0000000004395330F43FF05
:1000B000ECCF4427539552FFE7CF839555272395DF
:1000C00022FFB7CF33274427552721E0A6E2B2E429
:1000D0006770A60FA60FA60F51E03D91129A37FF49
:1000E00006C00000000000000000000000001298A0
:1000F0000000000030FDB7CF000000004395330F33
:1001000043FFECCF4427539552FFE7CF5527A6E294
:10011000B2E46770A60FA60FA60F51E03D91129AA8
:1001200037FF06C0000000000000000000000000D3
:1001300012980000000030FDB8CF00000000439589
:10014000330F43FFECCF4427539552FFE7CF55279A
:10015000A6E2B2E46770A60FA60FA60F51E03D918C
:10016000129A37FF06C000000000000000000000E7
:10017000000012980000000030FD02C000000000E6
:100180004395330F43FFECCF4427539552FFE7CFFE
:100190005527263000F5A6E2B2E46770A60FA60F39
:1001A000A60F51E03D91129A37FF06C000000000F3
:1001B000000000000000000012980000000030FD68
:1001C00002C0000000004395330F43FFECCF4427EB
:1001D000539552FFE7CF55276395239523FF76CF9D
:1001E000CF91089540ED49BF48ED4CBF16BF17BFF2
:1001F000089544E041B90895F5DFFBDFC0E080E0F9
:100200006C2F12DF4FE75FE462E1415050406040E5
:10021000E1F700C00000CF5F8C2F8695F1CFF894F6
:02022000FFCF0E
:10022200120C090300123000006018003040000078
:0C0232002020002040000040000026209A
:00000001FF
